{
  "_format": "hh-sol-artifact-1",
  "contractName": "Learn2Earn",
  "sourceName": "contracts/l2e.sol",
  "abi": [
    {
      "inputs": [],
      "stateMutability": "nonpayable",
      "type": "constructor"
    },
    {
      "anonymous": false,
      "inputs": [
        {
          "indexed": false,
          "internalType": "uint256",
          "name": "_courseId",
          "type": "uint256"
        },
        {
          "indexed": false,
          "internalType": "uint256",
          "name": "_shares",
          "type": "uint256"
        },
        {
          "indexed": false,
          "internalType": "uint256",
          "name": "_totalPrice",
          "type": "uint256"
        }
      ],
      "name": "CourseBought",
      "type": "event"
    },
    {
      "anonymous": false,
      "inputs": [
        {
          "indexed": false,
          "internalType": "address",
          "name": "_seller",
          "type": "address"
        },
        {
          "indexed": false,
          "internalType": "address",
          "name": "_buyer",
          "type": "address"
        },
        {
          "indexed": false,
          "internalType": "uint256",
          "name": "_courseId",
          "type": "uint256"
        },
        {
          "indexed": false,
          "internalType": "uint256",
          "name": "_shares",
          "type": "uint256"
        },
        {
          "indexed": false,
          "internalType": "uint256",
          "name": "_totalPrice",
          "type": "uint256"
        }
      ],
      "name": "CourseBoughtFromPool",
      "type": "event"
    },
    {
      "anonymous": false,
      "inputs": [
        {
          "indexed": false,
          "internalType": "address",
          "name": "_seller",
          "type": "address"
        },
        {
          "indexed": false,
          "internalType": "uint256",
          "name": "_courseId",
          "type": "uint256"
        },
        {
          "indexed": false,
          "internalType": "uint256",
          "name": "_shares",
          "type": "uint256"
        },
        {
          "indexed": false,
          "internalType": "uint256",
          "name": "_pricePerShare",
          "type": "uint256"
        }
      ],
      "name": "ShareForSale",
      "type": "event"
    },
    {
      "anonymous": false,
      "inputs": [
        {
          "indexed": false,
          "internalType": "address",
          "name": "_seller",
          "type": "address"
        },
        {
          "indexed": false,
          "internalType": "uint256",
          "name": "_courseId",
          "type": "uint256"
        },
        {
          "indexed": false,
          "internalType": "uint256",
          "name": "_shares",
          "type": "uint256"
        },
        {
          "indexed": false,
          "internalType": "uint256",
          "name": "_pricePerShare",
          "type": "uint256"
        }
      ],
      "name": "ShareNotForSale",
      "type": "event"
    },
    {
      "inputs": [
        {
          "internalType": "uint256",
          "name": "_courseId",
          "type": "uint256"
        },
        {
          "internalType": "uint256",
          "name": "_shares",
          "type": "uint256"
        }
      ],
      "name": "buyCourse",
      "outputs": [],
      "stateMutability": "payable",
      "type": "function"
    },
    {
      "inputs": [
        {
          "internalType": "address",
          "name": "_studentAddress",
          "type": "address"
        },
        {
          "internalType": "uint256",
          "name": "_courseId",
          "type": "uint256"
        },
        {
          "internalType": "uint256",
          "name": "_shares",
          "type": "uint256"
        }
      ],
      "name": "buyCourseFromStudent",
      "outputs": [],
      "stateMutability": "payable",
      "type": "function"
    },
    {
      "inputs": [
        {
          "internalType": "uint256",
          "name": "_courseId",
          "type": "uint256"
        }
      ],
      "name": "cancelSellCourse",
      "outputs": [],
      "stateMutability": "nonpayable",
      "type": "function"
    },
    {
      "inputs": [
        {
          "internalType": "uint256",
          "name": "",
          "type": "uint256"
        }
      ],
      "name": "courses",
      "outputs": [
        {
          "internalType": "uint256",
          "name": "courseId",
          "type": "uint256"
        },
        {
          "internalType": "uint256",
          "name": "pricePerShare",
          "type": "uint256"
        },
        {
          "internalType": "uint256",
          "name": "totalShares",
          "type": "uint256"
        }
      ],
      "stateMutability": "view",
      "type": "function"
    },
    {
      "inputs": [
        {
          "internalType": "uint256",
          "name": "_pricePerShare",
          "type": "uint256"
        },
        {
          "internalType": "uint256",
          "name": "_totalShares",
          "type": "uint256"
        }
      ],
      "name": "createCourse",
      "outputs": [],
      "stateMutability": "nonpayable",
      "type": "function"
    },
    {
      "inputs": [],
      "name": "getBalance",
      "outputs": [
        {
          "internalType": "uint256",
          "name": "",
          "type": "uint256"
        }
      ],
      "stateMutability": "view",
      "type": "function"
    },
    {
      "inputs": [],
      "name": "getCourses",
      "outputs": [
        {
          "internalType": "uint256[]",
          "name": "",
          "type": "uint256[]"
        },
        {
          "internalType": "uint256[]",
          "name": "",
          "type": "uint256[]"
        }
      ],
      "stateMutability": "view",
      "type": "function"
    },
    {
      "inputs": [
        {
          "internalType": "uint256",
          "name": "_courseId",
          "type": "uint256"
        },
        {
          "internalType": "uint256",
          "name": "_pricePerShare",
          "type": "uint256"
        }
      ],
      "name": "sellCourse",
      "outputs": [],
      "stateMutability": "nonpayable",
      "type": "function"
    },
    {
      "inputs": [
        {
          "internalType": "address",
          "name": "",
          "type": "address"
        }
      ],
      "name": "students",
      "outputs": [
        {
          "internalType": "address",
          "name": "studentAddress",
          "type": "address"
        },
        {
          "internalType": "uint256",
          "name": "courseId",
          "type": "uint256"
        },
        {
          "internalType": "uint256",
          "name": "shares",
          "type": "uint256"
        },
        {
          "internalType": "bool",
          "name": "isForSale",
          "type": "bool"
        },
        {
          "internalType": "uint256",
          "name": "pricePerShare",
          "type": "uint256"
        }
      ],
      "stateMutability": "view",
      "type": "function"
    },
    {
      "inputs": [],
      "name": "totalCourses",
      "outputs": [
        {
          "internalType": "uint256",
          "name": "",
          "type": "uint256"
        }
      ],
      "stateMutability": "view",
      "type": "function"
    }
  ],
  "bytecode": "0x608060405234801561001057600080fd5b5060008081905550611bde806100276000396000f3fe6080604052600436106100915760003560e01c806399dbff011161005957806399dbff0114610170578063a6c807a91461018c578063cc126479146101cd578063f89b6bc8146101f9578063fd1858fe1461022257610091565b806312065fe014610096578063145098dd146100c157806330aaaabe146100dd57806387ac18601461010657806396f979d214610131575b600080fd5b3480156100a257600080fd5b506100ab61024b565b6040516100b8919061110a565b60405180910390f35b6100db60048036038101906100d691906111b4565b610253565b005b3480156100e957600080fd5b5061010460048036038101906100ff9190611207565b61073d565b005b34801561011257600080fd5b5061011b610a19565b604051610128919061110a565b60405180910390f35b34801561013d57600080fd5b5061015860048036038101906101539190611247565b610a1f565b60405161016793929190611274565b60405180910390f35b61018a60048036038101906101859190611207565b610a49565b005b34801561019857600080fd5b506101b360048036038101906101ae91906112ab565b610cb0565b6040516101c4959493929190611302565b60405180910390f35b3480156101d957600080fd5b506101e2610d13565b6040516101f0929190611413565b60405180910390f35b34801561020557600080fd5b50610220600480360381019061021b9190611207565b610e4b565b005b34801561022e57600080fd5b5061024960048036038101906102449190611247565b610eb8565b005b600047905090565b81600260008573ffffffffffffffffffffffffffffffffffffffff1673ffffffffffffffffffffffffffffffffffffffff16815260200190815260200160002060010154146102d7576040517f08c379a00000000000000000000000000000000000000000000000000000000081526004016102ce906114cd565b60405180910390fd5b60011515600260008573ffffffffffffffffffffffffffffffffffffffff1673ffffffffffffffffffffffffffffffffffffffff16815260200190815260200160002060030160009054906101000a900460ff1615151461036d576040517f08c379a00000000000000000000000000000000000000000000000000000000081526004016103649061155f565b60405180910390fd5b80600260008573ffffffffffffffffffffffffffffffffffffffff1673ffffffffffffffffffffffffffffffffffffffff1681526020019081526020016000206002015410156103f2576040517f08c379a00000000000000000000000000000000000000000000000000000000081526004016103e9906115cb565b60405180910390fd5b600260008473ffffffffffffffffffffffffffffffffffffffff1673ffffffffffffffffffffffffffffffffffffffff1681526020019081526020016000206004015481610440919061161a565b341015610482576040517f08c379a0000000000000000000000000000000000000000000000000000000008152600401610479906116a8565b60405180910390fd5b6000600260008573ffffffffffffffffffffffffffffffffffffffff1673ffffffffffffffffffffffffffffffffffffffff16815260200190815260200160002060040154826104d2919061161a565b90508373ffffffffffffffffffffffffffffffffffffffff166108fc829081150290604051600060405180830381858888f1935050505015801561051a573d6000803e3d6000fd5b5081600260008673ffffffffffffffffffffffffffffffffffffffff1673ffffffffffffffffffffffffffffffffffffffff168152602001908152602001600020600201600082825461056d91906116c8565b9250508190555082600260003373ffffffffffffffffffffffffffffffffffffffff1673ffffffffffffffffffffffffffffffffffffffff1681526020019081526020016000206001018190555081600260003373ffffffffffffffffffffffffffffffffffffffff1673ffffffffffffffffffffffffffffffffffffffff168152602001908152602001600020600201600082825461060d91906116fc565b925050819055506000600260003373ffffffffffffffffffffffffffffffffffffffff1673ffffffffffffffffffffffffffffffffffffffff16815260200190815260200160002060030160006101000a81548160ff021916908315150217905550600260008573ffffffffffffffffffffffffffffffffffffffff1673ffffffffffffffffffffffffffffffffffffffff16815260200190815260200160002060040154600260003373ffffffffffffffffffffffffffffffffffffffff1673ffffffffffffffffffffffffffffffffffffffff168152602001908152602001600020600401819055507f02f93d8f819073736d018c95818509553e16390ed136c183625b458fc4a49f31843385858560405161072f959493929190611730565b60405180910390a150505050565b81600260003373ffffffffffffffffffffffffffffffffffffffff1673ffffffffffffffffffffffffffffffffffffffff16815260200190815260200160002060010154146107c1576040517f08c379a00000000000000000000000000000000000000000000000000000000081526004016107b8906117f5565b60405180910390fd5b60001515600260003373ffffffffffffffffffffffffffffffffffffffff1673ffffffffffffffffffffffffffffffffffffffff16815260200190815260200160002060030160009054906101000a900460ff16151514610857576040517f08c379a000000000000000000000000000000000000000000000000000000000815260040161084e90611887565b60405180910390fd5b606460fa600260003373ffffffffffffffffffffffffffffffffffffffff1673ffffffffffffffffffffffffffffffffffffffff168152602001908152602001600020600401546108a8919061161a565b6108b291906118d6565b8111156108f4576040517f08c379a00000000000000000000000000000000000000000000000000000000081526004016108eb9061199f565b60405180910390fd5b6001600260003373ffffffffffffffffffffffffffffffffffffffff1673ffffffffffffffffffffffffffffffffffffffff16815260200190815260200160002060030160006101000a81548160ff02191690831515021790555080600260003373ffffffffffffffffffffffffffffffffffffffff1673ffffffffffffffffffffffffffffffffffffffff168152602001908152602001600020600401819055507f5f33382999f92652ec6d4d508151ddb28bcaa70ce280900ae204d11c0464319e3383600260003373ffffffffffffffffffffffffffffffffffffffff1673ffffffffffffffffffffffffffffffffffffffff1681526020019081526020016000206002015484604051610a0d94939291906119bf565b60405180910390a15050565b60005481565b60016020528060005260406000206000915090508060000154908060010154908060020154905083565b8060016000848152602001908152602001600020600201541015610aa2576040517f08c379a0000000000000000000000000000000000000000000000000000000008152600401610a99906115cb565b60405180910390fd5b600160008381526020019081526020016000206001015481610ac4919061161a565b341015610b06576040517f08c379a0000000000000000000000000000000000000000000000000000000008152600401610afd90611a50565b60405180910390fd5b80600160008481526020019081526020016000206002016000828254610b2c91906116c8565b925050819055506040518060a001604052803373ffffffffffffffffffffffffffffffffffffffff1681526020018381526020018281526020016000151581526020016001600085815260200190815260200160002060010154815250600260003373ffffffffffffffffffffffffffffffffffffffff1673ffffffffffffffffffffffffffffffffffffffff16815260200190815260200160002060008201518160000160006101000a81548173ffffffffffffffffffffffffffffffffffffffff021916908373ffffffffffffffffffffffffffffffffffffffff160217905550602082015181600101556040820151816002015560608201518160030160006101000a81548160ff021916908315150217905550608082015181600401559050507f11dc56383197cd3cb7f3f44cd2f54784a3433c1248150b5cf6c8f606a589ee4e8282600160008681526020019081526020016000206001015484610c95919061161a565b604051610ca493929190611274565b60405180910390a15050565b60026020528060005260406000206000915090508060000160009054906101000a900473ffffffffffffffffffffffffffffffffffffffff16908060010154908060020154908060030160009054906101000a900460ff16908060040154905085565b6060806000805467ffffffffffffffff811115610d3357610d32611a70565b5b604051908082528060200260200182016040528015610d615781602001602082028036833780820191505090505b5090506000805467ffffffffffffffff811115610d8157610d80611a70565b5b604051908082528060200260200182016040528015610daf5781602001602082028036833780820191505090505b50905060005b600054811015610e3e576001600082815260200190815260200160002060010154838281518110610de957610de8611a9f565b5b6020026020010181815250506001600082815260200190815260200160002060020154828281518110610e1f57610e1e611a9f565b5b6020026020010181815250508080610e3690611ace565b915050610db5565b5081819350935050509091565b600080815480929190610e5d90611ace565b9190505550604051806060016040528060005481526020018381526020018281525060016000805481526020019081526020016000206000820151816000015560208201518160010155604082015181600201559050505050565b80600260003373ffffffffffffffffffffffffffffffffffffffff1673ffffffffffffffffffffffffffffffffffffffff1681526020019081526020016000206001015414610f3c576040517f08c379a0000000000000000000000000000000000000000000000000000000008152600401610f33906117f5565b60405180910390fd5b60011515600260003373ffffffffffffffffffffffffffffffffffffffff1673ffffffffffffffffffffffffffffffffffffffff16815260200190815260200160002060030160009054906101000a900460ff16151514610fd2576040517f08c379a0000000000000000000000000000000000000000000000000000000008152600401610fc990611b88565b60405180910390fd5b6000600260003373ffffffffffffffffffffffffffffffffffffffff1673ffffffffffffffffffffffffffffffffffffffff16815260200190815260200160002060030160006101000a81548160ff0219169083151502179055507f1dcebad55c22031bbacb725acf0395ba3b58f2d179159092f560770fe49b95003382600260003373ffffffffffffffffffffffffffffffffffffffff1673ffffffffffffffffffffffffffffffffffffffff16815260200190815260200160002060020154600260003373ffffffffffffffffffffffffffffffffffffffff1673ffffffffffffffffffffffffffffffffffffffff168152602001908152602001600020600401546040516110e694939291906119bf565b60405180910390a150565b6000819050919050565b611104816110f1565b82525050565b600060208201905061111f60008301846110fb565b92915050565b600080fd5b600073ffffffffffffffffffffffffffffffffffffffff82169050919050565b60006111558261112a565b9050919050565b6111658161114a565b811461117057600080fd5b50565b6000813590506111828161115c565b92915050565b611191816110f1565b811461119c57600080fd5b50565b6000813590506111ae81611188565b92915050565b6000806000606084860312156111cd576111cc611125565b5b60006111db86828701611173565b93505060206111ec8682870161119f565b92505060406111fd8682870161119f565b9150509250925092565b6000806040838503121561121e5761121d611125565b5b600061122c8582860161119f565b925050602061123d8582860161119f565b9150509250929050565b60006020828403121561125d5761125c611125565b5b600061126b8482850161119f565b91505092915050565b600060608201905061128960008301866110fb565b61129660208301856110fb565b6112a360408301846110fb565b949350505050565b6000602082840312156112c1576112c0611125565b5b60006112cf84828501611173565b91505092915050565b6112e18161114a565b82525050565b60008115159050919050565b6112fc816112e7565b82525050565b600060a08201905061131760008301886112d8565b61132460208301876110fb565b61133160408301866110fb565b61133e60608301856112f3565b61134b60808301846110fb565b9695505050505050565b600081519050919050565b600082825260208201905092915050565b6000819050602082019050919050565b61138a816110f1565b82525050565b600061139c8383611381565b60208301905092915050565b6000602082019050919050565b60006113c082611355565b6113ca8185611360565b93506113d583611371565b8060005b838110156114065781516113ed8882611390565b97506113f8836113a8565b9250506001810190506113d9565b5085935050505092915050565b6000604082019050818103600083015261142d81856113b5565b9050818103602083015261144181846113b5565b90509392505050565b600082825260208201905092915050565b7f53747564656e74206973206e6f7420656e726f6c6c656420696e20746869732060008201527f636f757273650000000000000000000000000000000000000000000000000000602082015250565b60006114b760268361144a565b91506114c28261145b565b604082019050919050565b600060208201905081810360008301526114e6816114aa565b9050919050565b7f53747564656e7420686173206e6f7420707574207468697320636f757273652060008201527f666f722073616c65000000000000000000000000000000000000000000000000602082015250565b600061154960288361144a565b9150611554826114ed565b604082019050919050565b600060208201905081810360008301526115788161153c565b9050919050565b7f4e6f7420656e6f7567682073686172657320617661696c61626c650000000000600082015250565b60006115b5601b8361144a565b91506115c08261157f565b602082019050919050565b600060208201905081810360008301526115e4816115a8565b9050919050565b7f4e487b7100000000000000000000000000000000000000000000000000000000600052601160045260246000fd5b6000611625826110f1565b9150611630836110f1565b925082820261163e816110f1565b91508282048414831517611655576116546115eb565b5b5092915050565b7f4e6f7420656e6f7567682066756e64732073656e740000000000000000000000600082015250565b600061169260158361144a565b915061169d8261165c565b602082019050919050565b600060208201905081810360008301526116c181611685565b9050919050565b60006116d3826110f1565b91506116de836110f1565b92508282039050818111156116f6576116f56115eb565b5b92915050565b6000611707826110f1565b9150611712836110f1565b925082820190508082111561172a576117296115eb565b5b92915050565b600060a08201905061174560008301886112d8565b61175260208301876112d8565b61175f60408301866110fb565b61176c60608301856110fb565b61177960808301846110fb565b9695505050505050565b7f596f7520617265206e6f7420656e726f6c6c656420696e207468697320636f7560008201527f7273650000000000000000000000000000000000000000000000000000000000602082015250565b60006117df60238361144a565b91506117ea82611783565b604082019050919050565b6000602082019050818103600083015261180e816117d2565b9050919050565b7f596f75206861766520616c726561647920707574207468697320636f7572736560008201527f20666f722073616c650000000000000000000000000000000000000000000000602082015250565b600061187160298361144a565b915061187c82611815565b604082019050919050565b600060208201905081810360008301526118a081611864565b9050919050565b7f4e487b7100000000000000000000000000000000000000000000000000000000600052601260045260246000fd5b60006118e1826110f1565b91506118ec836110f1565b9250826118fc576118fb6118a7565b5b828204905092915050565b7f5072696365207065722073686172652063616e6e6f74206265206d6f7265207460008201527f68616e20313025206f66206f726967696e616c2070726963652070657220736860208201527f6172650000000000000000000000000000000000000000000000000000000000604082015250565b600061198960438361144a565b915061199482611907565b606082019050919050565b600060208201905081810360008301526119b88161197c565b9050919050565b60006080820190506119d460008301876112d8565b6119e160208301866110fb565b6119ee60408301856110fb565b6119fb60608301846110fb565b95945050505050565b7f4e6f7420656e6f7567682066756e642073656e74000000000000000000000000600082015250565b6000611a3a60148361144a565b9150611a4582611a04565b602082019050919050565b60006020820190508181036000830152611a6981611a2d565b9050919050565b7f4e487b7100000000000000000000000000000000000000000000000000000000600052604160045260246000fd5b7f4e487b7100000000000000000000000000000000000000000000000000000000600052603260045260246000fd5b6000611ad9826110f1565b91507fffffffffffffffffffffffffffffffffffffffffffffffffffffffffffffffff8203611b0b57611b0a6115eb565b5b600182019050919050565b7f596f752068617665206e6f7420707574207468697320636f7572736520666f7260008201527f2073616c65000000000000000000000000000000000000000000000000000000602082015250565b6000611b7260258361144a565b9150611b7d82611b16565b604082019050919050565b60006020820190508181036000830152611ba181611b65565b905091905056fea2646970667358221220fe4d1cae1063bd0ada271b040c510aa14687f11773d476fa2197abad7c87a7f164736f6c63430008120033",
  "linkReferences": {},
  "deployedLinkReferences": {}
}